{
  "contractName": "Voting",
  "abi": [
    {
      "inputs": [],
      "stateMutability": "nonpayable",
      "type": "constructor"
    },
    {
      "anonymous": false,
      "inputs": [
        {
          "indexed": false,
          "internalType": "uint256",
          "name": "candidateId",
          "type": "uint256"
        },
        {
          "indexed": false,
          "internalType": "string",
          "name": "name",
          "type": "string"
        },
        {
          "indexed": false,
          "internalType": "string",
          "name": "party",
          "type": "string"
        },
        {
          "indexed": false,
          "internalType": "address",
          "name": "candidateAddress",
          "type": "address"
        }
      ],
      "name": "CandidateAdded",
      "type": "event"
    },
    {
      "anonymous": false,
      "inputs": [
        {
          "indexed": false,
          "internalType": "address",
          "name": "voterAddress",
          "type": "address"
        },
        {
          "indexed": false,
          "internalType": "uint256",
          "name": "candidateId",
          "type": "uint256"
        }
      ],
      "name": "VoteCast",
      "type": "event"
    },
    {
      "anonymous": false,
      "inputs": [
        {
          "indexed": false,
          "internalType": "address",
          "name": "voterAddress",
          "type": "address"
        }
      ],
      "name": "VoterRegistered",
      "type": "event"
    },
    {
      "anonymous": false,
      "inputs": [
        {
          "indexed": false,
          "internalType": "uint256",
          "name": "index",
          "type": "uint256"
        },
        {
          "components": [
            {
              "internalType": "uint256",
              "name": "id",
              "type": "uint256"
            },
            {
              "internalType": "string",
              "name": "name",
              "type": "string"
            },
            {
              "internalType": "string",
              "name": "party",
              "type": "string"
            },
            {
              "internalType": "uint256",
              "name": "voteCount",
              "type": "uint256"
            }
          ],
          "indexed": false,
          "internalType": "struct Voting.Candidate",
          "name": "candidate",
          "type": "tuple"
        }
      ],
      "name": "WinnerDeclared",
      "type": "event"
    },
    {
      "inputs": [],
      "name": "candidateCount",
      "outputs": [
        {
          "internalType": "uint256",
          "name": "",
          "type": "uint256"
        }
      ],
      "stateMutability": "view",
      "type": "function",
      "constant": true
    },
    {
      "inputs": [
        {
          "internalType": "uint256",
          "name": "",
          "type": "uint256"
        }
      ],
      "name": "candidates",
      "outputs": [
        {
          "internalType": "uint256",
          "name": "id",
          "type": "uint256"
        },
        {
          "internalType": "string",
          "name": "name",
          "type": "string"
        },
        {
          "internalType": "string",
          "name": "party",
          "type": "string"
        },
        {
          "internalType": "uint256",
          "name": "voteCount",
          "type": "uint256"
        }
      ],
      "stateMutability": "view",
      "type": "function",
      "constant": true
    },
    {
      "inputs": [
        {
          "internalType": "uint256",
          "name": "",
          "type": "uint256"
        }
      ],
      "name": "getCandidateById",
      "outputs": [
        {
          "internalType": "uint256",
          "name": "id",
          "type": "uint256"
        },
        {
          "internalType": "string",
          "name": "name",
          "type": "string"
        },
        {
          "internalType": "string",
          "name": "party",
          "type": "string"
        },
        {
          "internalType": "uint256",
          "name": "voteCount",
          "type": "uint256"
        }
      ],
      "stateMutability": "view",
      "type": "function",
      "constant": true
    },
    {
      "inputs": [
        {
          "internalType": "address",
          "name": "",
          "type": "address"
        }
      ],
      "name": "hasVoted",
      "outputs": [
        {
          "internalType": "bool",
          "name": "",
          "type": "bool"
        }
      ],
      "stateMutability": "view",
      "type": "function",
      "constant": true
    },
    {
      "inputs": [
        {
          "internalType": "address",
          "name": "",
          "type": "address"
        }
      ],
      "name": "isCandidateAdded",
      "outputs": [
        {
          "internalType": "bool",
          "name": "",
          "type": "bool"
        }
      ],
      "stateMutability": "view",
      "type": "function",
      "constant": true
    },
    {
      "inputs": [
        {
          "internalType": "address",
          "name": "",
          "type": "address"
        }
      ],
      "name": "isVoterRegistered",
      "outputs": [
        {
          "internalType": "bool",
          "name": "",
          "type": "bool"
        }
      ],
      "stateMutability": "view",
      "type": "function",
      "constant": true
    },
    {
      "inputs": [],
      "name": "owner",
      "outputs": [
        {
          "internalType": "address",
          "name": "",
          "type": "address"
        }
      ],
      "stateMutability": "view",
      "type": "function",
      "constant": true
    },
    {
      "inputs": [],
      "name": "started",
      "outputs": [
        {
          "internalType": "bool",
          "name": "",
          "type": "bool"
        }
      ],
      "stateMutability": "view",
      "type": "function",
      "constant": true
    },
    {
      "inputs": [],
      "name": "voteCount",
      "outputs": [
        {
          "internalType": "uint256",
          "name": "",
          "type": "uint256"
        }
      ],
      "stateMutability": "view",
      "type": "function",
      "constant": true
    },
    {
      "inputs": [],
      "name": "voterCount",
      "outputs": [
        {
          "internalType": "uint256",
          "name": "",
          "type": "uint256"
        }
      ],
      "stateMutability": "view",
      "type": "function",
      "constant": true
    },
    {
      "inputs": [],
      "name": "startVoting",
      "outputs": [],
      "stateMutability": "nonpayable",
      "type": "function"
    },
    {
      "inputs": [],
      "name": "endVoting",
      "outputs": [],
      "stateMutability": "nonpayable",
      "type": "function"
    },
    {
      "inputs": [
        {
          "internalType": "string",
          "name": "name",
          "type": "string"
        },
        {
          "internalType": "string",
          "name": "party",
          "type": "string"
        }
      ],
      "name": "addCandidate",
      "outputs": [],
      "stateMutability": "nonpayable",
      "type": "function"
    },
    {
      "inputs": [],
      "name": "getAllCandidates",
      "outputs": [
        {
          "components": [
            {
              "internalType": "uint256",
              "name": "id",
              "type": "uint256"
            },
            {
              "internalType": "string",
              "name": "name",
              "type": "string"
            },
            {
              "internalType": "string",
              "name": "party",
              "type": "string"
            },
            {
              "internalType": "uint256",
              "name": "voteCount",
              "type": "uint256"
            }
          ],
          "internalType": "struct Voting.Candidate[]",
          "name": "",
          "type": "tuple[]"
        }
      ],
      "stateMutability": "view",
      "type": "function",
      "constant": true
    },
    {
      "inputs": [
        {
          "internalType": "address",
          "name": "voterAddress",
          "type": "address"
        }
      ],
      "name": "registerVoter",
      "outputs": [],
      "stateMutability": "nonpayable",
      "type": "function"
    },
    {
      "inputs": [
        {
          "internalType": "uint256",
          "name": "candidateId",
          "type": "uint256"
        }
      ],
      "name": "vote",
      "outputs": [],
      "stateMutability": "nonpayable",
      "type": "function"
    },
    {
      "inputs": [],
      "name": "getWinner",
      "outputs": [
        {
          "components": [
            {
              "internalType": "uint256",
              "name": "id",
              "type": "uint256"
            },
            {
              "internalType": "string",
              "name": "name",
              "type": "string"
            },
            {
              "internalType": "string",
              "name": "party",
              "type": "string"
            },
            {
              "internalType": "uint256",
              "name": "voteCount",
              "type": "uint256"
            }
          ],
          "internalType": "struct Voting.Candidate",
          "name": "",
          "type": "tuple"
        }
      ],
      "stateMutability": "view",
      "type": "function",
      "constant": true
    }
  ],
  "bytecode": "0x608060405234801561001057600080fd5b50600080546001600160a01b0319163317905561130e806100326000396000f3fe608060405234801561001057600080fd5b506004361061010b5760003560e01c806338db6dd3116100a257806395f850221161007157806395f850221461020e578063a9a981a314610221578063c3403ddf14610229578063c638407114610231578063eb2119db146102395761010b565b806338db6dd3146101bc57806342169e48146101cf5780638da5cb5b146101e45780638e7ea5b2146101f95761010b565b80631f2698ab116100de5780631f2698ab1461016957806326541b56146101715780632e6997fe146101845780633477ee2e146101995761010b565b80630121b93f14610110578063066f7dea1461012557806309eef43e1461014e5780631ec6b60a14610161575b600080fd5b61012361011e366004610eb8565b61024c565b005b610138610133366004610e29565b610411565b6040516101459190610ff7565b60405180910390f35b61013861015c366004610e29565b610426565b61012361043b565b6101386104a4565b61012361017f366004610e57565b6104b4565b61018c610615565b6040516101459190610f97565b6101ac6101a7366004610eb8565b6107ac565b6040516101459493929190611202565b6101236101ca366004610e29565b6108f8565b6101d76109c3565b60405161014591906111f9565b6101ec6109c9565b6040516101459190610f6a565b6102016109d8565b60405161014591906111e6565b6101ac61021c366004610eb8565b610c42565b6101d7610c64565b610123610c6a565b6101d7610ccc565b610138610247366004610e29565b610cd2565b3360009081526007602052604090205460ff166102845760405162461bcd60e51b815260040161027b90611151565b60405180910390fd5b3360009081526008602052604090205460ff16156102b45760405162461bcd60e51b815260040161027b906111b6565b600054600160a01b900460ff166102dd5760405162461bcd60e51b815260040161027b90611030565b6000811180156102ef57506001548111155b61030b5760405162461bcd60e51b815260040161027b90611188565b6000546001600160a01b03163314156103365760405162461bcd60e51b815260040161027b906110ca565b6003805490600061034683611291565b9091555050336000908152600860209081526040808320805460ff191660011790558383526005909152812060030180549161038183611291565b909155506004905061039460018361123f565b815481106103b257634e487b7160e01b600052603260045260246000fd5b6000918252602082206003600490920201018054916103d083611291565b91905055507fa36cc2bebb74db33e9f88110a07ef56e1b31b24b4c4f51b54b1664266e29f45b3382604051610406929190610f7e565b60405180910390a150565b60066020526000908152604090205460ff1681565b60086020526000908152604090205460ff1681565b6000546001600160a01b031633146104655760405162461bcd60e51b815260040161027b90611093565b600054600160a01b900460ff161561048f5760405162461bcd60e51b815260040161027b906110f5565b6000805460ff60a01b1916600160a01b179055565b600054600160a01b900460ff1681565b6000546001600160a01b031633146104de5760405162461bcd60e51b815260040161027b90611093565b600180549060006104ee83611291565b909155505060408051608081018252600180548252602080830186815293830185905260006060840181905260048054938401815590819052835192027f8a35acfbc15ff81a39ae7d344fd709f28e8600b4aa8c65c6b64bfe7fe36bd19b8101928355935180519394859461058b937f8a35acfbc15ff81a39ae7d344fd709f28e8600b4aa8c65c6b64bfe7fe36bd19c9092019290910190610ce7565b50604082015180516105a7916002840191602090910190610ce7565b506060919091015160039091015560018054600090815260056020908152604090912083518155818401518051859492936105e6938501920190610ce7565b5060408201518051610602916002840191602090910190610ce7565b5060608201518160030155905050505050565b60606004805480602002602001604051908101604052809291908181526020016000905b828210156107a357838290600052602060002090600402016040518060800160405290816000820154815260200160018201805461067690611256565b80601f01602080910402602001604051908101604052809291908181526020018280546106a290611256565b80156106ef5780601f106106c4576101008083540402835291602001916106ef565b820191906000526020600020905b8154815290600101906020018083116106d257829003601f168201915b5050505050815260200160028201805461070890611256565b80601f016020809104026020016040519081016040528092919081815260200182805461073490611256565b80156107815780601f1061075657610100808354040283529160200191610781565b820191906000526020600020905b81548152906001019060200180831161076457829003601f168201915b5050505050815260200160038201548152505081526020019060010190610639565b50505050905090565b600481815481106107bc57600080fd5b600091825260209091206004909102018054600182018054919350906107e190611256565b80601f016020809104026020016040519081016040528092919081815260200182805461080d90611256565b801561085a5780601f1061082f5761010080835404028352916020019161085a565b820191906000526020600020905b81548152906001019060200180831161083d57829003601f168201915b50505050509080600201805461086f90611256565b80601f016020809104026020016040519081016040528092919081815260200182805461089b90611256565b80156108e85780601f106108bd576101008083540402835291602001916108e8565b820191906000526020600020905b8154815290600101906020018083116108cb57829003601f168201915b5050505050908060030154905084565b6000546001600160a01b031633146109225760405162461bcd60e51b815260040161027b90611093565b6001600160a01b03811660009081526007602052604090205460ff161561095b5760405162461bcd60e51b815260040161027b9061105c565b6002805490600061096b83611291565b90915550506001600160a01b03811660009081526007602052604090819020805460ff19166001179055517fb6be2187d059cc2a55fe29e0e503b566e1e0f8c8780096e185429350acffd3dd90610406908390610f6a565b60025481565b6000546001600160a01b031681565b6109e0610d6b565b6000546001600160a01b03163314610a0a5760405162461bcd60e51b815260040161027b90611093565b600054600160a01b900460ff1615610a345760405162461bcd60e51b815260040161027b90611125565b600080805b600454811015610ac8578260048281548110610a6557634e487b7160e01b600052603260045260246000fd5b9060005260206000209060040201600301541115610ab65760048181548110610a9e57634e487b7160e01b600052603260045260246000fd5b90600052602060002090600402016003015492508091505b80610ac081611291565b915050610a39565b5060048181548110610aea57634e487b7160e01b600052603260045260246000fd5b906000526020600020906004020160405180608001604052908160008201548152602001600182018054610b1d90611256565b80601f0160208091040260200160405190810160405280929190818152602001828054610b4990611256565b8015610b965780601f10610b6b57610100808354040283529160200191610b96565b820191906000526020600020905b815481529060010190602001808311610b7957829003601f168201915b50505050508152602001600282018054610baf90611256565b80601f0160208091040260200160405190810160405280929190818152602001828054610bdb90611256565b8015610c285780601f10610bfd57610100808354040283529160200191610c28565b820191906000526020600020905b815481529060010190602001808311610c0b57829003601f168201915b505050505081526020016003820154815250509250505090565b600560205260009081526040902080546001820180549192916107e190611256565b60015481565b6000546001600160a01b03163314610c945760405162461bcd60e51b815260040161027b90611093565b600054600160a01b900460ff16610cbd5760405162461bcd60e51b815260040161027b90611002565b6000805460ff60a01b19169055565b60035481565b60076020526000908152604090205460ff1681565b828054610cf390611256565b90600052602060002090601f016020900481019282610d155760008555610d5b565b82601f10610d2e57805160ff1916838001178555610d5b565b82800160010185558215610d5b579182015b82811115610d5b578251825591602001919060010190610d40565b50610d67929150610d93565b5090565b6040518060800160405280600081526020016060815260200160608152602001600081525090565b5b80821115610d675760008155600101610d94565b600082601f830112610db8578081fd5b813567ffffffffffffffff80821115610dd357610dd36112c2565b604051601f8301601f191681016020018281118282101715610df757610df76112c2565b604052828152848301602001861015610e0e578384fd5b82602086016020830137918201602001929092529392505050565b600060208284031215610e3a578081fd5b81356001600160a01b0381168114610e50578182fd5b9392505050565b60008060408385031215610e69578081fd5b823567ffffffffffffffff80821115610e80578283fd5b610e8c86838701610da8565b93506020850135915080821115610ea1578283fd5b50610eae85828601610da8565b9150509250929050565b600060208284031215610ec9578081fd5b5035919050565b60008151808452815b81811015610ef557602081850181015186830182015201610ed9565b81811115610f065782602083870101525b50601f01601f19169290920160200192915050565b600081518352602082015160806020850152610f3a6080850182610ed0565b905060408301518482036040860152610f538282610ed0565b915050606083015160608501528091505092915050565b6001600160a01b0391909116815260200190565b6001600160a01b03929092168252602082015260400190565b6000602080830181845280855180835260408601915060408482028701019250838701855b82811015610fea57603f19888603018452610fd8858351610f1b565b94509285019290850190600101610fbc565b5092979650505050505050565b901515815260200190565b602080825260149082015273159bdd1a5b99c8185b1c9958591e48195b99195960621b604082015260600190565b602080825260129082015271159bdd1a5b99c81b9bdd081cdd185c9d195960721b604082015260600190565b60208082526018908201527f566f74657220616c726561647920726567697374657265640000000000000000604082015260600190565b6020808252601a908201527f416363657373207265737472696374656420746f206f776e6572000000000000604082015260600190565b6020808252601190820152704f776e65722063616e6e6f7420766f746560781b604082015260600190565b602080825260169082015275159bdd1a5b99c8185b1c9958591e481cdd185c9d195960521b604082015260600190565b6020808252601290820152712b37ba34b7339034b9903737ba1037bb32b960711b604082015260600190565b6020808252601e908201527f596f7520617265206e6f742061207265676973746572656420766f7465720000604082015260600190565b602080825260149082015273125b9d985b1a590818d85b991a59185d1948125160621b604082015260600190565b602080825260169082015275165bdd481a185d9948185b1c9958591e481d9bdd195960521b604082015260600190565b600060208252610e506020830184610f1b565b90815260200190565b60008582526080602083015261121b6080830186610ed0565b828103604084015261122d8186610ed0565b91505082606083015295945050505050565b600082821015611251576112516112ac565b500390565b60028104600182168061126a57607f821691505b6020821081141561128b57634e487b7160e01b600052602260045260246000fd5b50919050565b60006000198214156112a5576112a56112ac565b5060010190565b634e487b7160e01b600052601160045260246000fd5b634e487b7160e01b600052604160045260246000fdfea2646970667358221220aa580e29002582d50d6b037c4a7a61f28597c2f4c2fafd7c9ab610bcceb406ea64736f6c63430008000033",
  "immutableReferences": {},
  "source": "// SPDX-License-Identifier: MIT\r\npragma solidity ^0.8.0;\r\n\r\ncontract Voting {\r\n    address public owner;\r\n    bool public started;\r\n    uint256 public candidateCount;\r\n    uint256 public voterCount;\r\n    uint256 public voteCount;\r\n\r\n    struct Candidate {\r\n        uint256 id;\r\n        string name;\r\n        string party;\r\n        uint256 voteCount;\r\n    }\r\n\r\n    Candidate[] public candidates;\r\n\r\n    mapping(uint256 => Candidate) public getCandidateById;\r\n    mapping(address => bool) public isCandidateAdded;\r\n    mapping(address => bool) public isVoterRegistered;\r\n    mapping(address => bool) public hasVoted;\r\n\r\n    event CandidateAdded(uint256 candidateId, string name, string party, address candidateAddress);\r\n    event VoterRegistered(address voterAddress);\r\n    event VoteCast(address voterAddress, uint256 candidateId);\r\n    event WinnerDeclared(uint256 index, Candidate candidate);\r\n\r\n    modifier onlyOwner() {\r\n        require(msg.sender == owner, \"Access restricted to owner\");\r\n        _;\r\n    }\r\n\r\n    modifier isRegisteredVoter() {\r\n        require(isVoterRegistered[msg.sender], \"You are not a registered voter\");\r\n        _;\r\n    }\r\n\r\n    modifier hasNotVotedYet() {\r\n        require(!hasVoted[msg.sender], \"You have already voted\");\r\n        _;\r\n    }\r\n\r\n    constructor() {\r\n        owner = msg.sender;\r\n    }\r\n\r\n    function startVoting() public onlyOwner {\r\n        require(!started, \"Voting already started\");\r\n        started = true;\r\n    }\r\n\r\n    function endVoting() public onlyOwner {\r\n        require(started, \"Voting already ended\");\r\n        started = false;\r\n    }\r\n\r\n    function addCandidate(string memory name, string memory party) public onlyOwner {\r\n        candidateCount++;\r\n        Candidate memory newCandidate = Candidate({\r\n            id: candidateCount,\r\n            name: name,\r\n            party: party,\r\n            voteCount: 0\r\n        });\r\n        candidates.push(newCandidate);\r\n        getCandidateById[candidateCount] = newCandidate;\r\n    }\r\n\r\n    function getAllCandidates() public view returns (Candidate[] memory) {\r\n        return candidates;\r\n    }\r\n\r\n    function registerVoter(address voterAddress) public onlyOwner {\r\n        require(!isVoterRegistered[voterAddress], \"Voter already registered\");\r\n        voterCount++;\r\n        isVoterRegistered[voterAddress] = true;\r\n        emit VoterRegistered(voterAddress);\r\n    }\r\n\r\n    function vote(uint256 candidateId)\r\n        public\r\n        isRegisteredVoter\r\n        hasNotVotedYet\r\n    {\r\n        require(started, \"Voting not started\");\r\n        require(candidateId > 0 && candidateId <= candidateCount, \"Invalid candidate ID\");\r\n        require(msg.sender != owner, \"Owner cannot vote\");\r\n\r\n        voteCount++;\r\n        hasVoted[msg.sender] = true;\r\n\r\n        // Update vote counts in both the mapping and the array\r\n        getCandidateById[candidateId].voteCount++;\r\n        candidates[candidateId - 1].voteCount++;\r\n\r\n        emit VoteCast(msg.sender, candidateId);\r\n    }\r\n\r\n    function getWinner() public view onlyOwner returns (Candidate memory) {\r\n        require(!started, \"Voting is not over\");\r\n        uint256 highestVoteCount = 0;\r\n        uint256 index;\r\n\r\n        for (uint256 i = 0; i < candidates.length; i++) {\r\n            if (candidates[i].voteCount > highestVoteCount) {\r\n                highestVoteCount = candidates[i].voteCount;\r\n                index = i;\r\n            }\r\n        }\r\n        return candidates[index];\r\n    }\r\n}\r\n",
  "sourcePath": "D:\\Blockchain\\Truffle\\QuadBTech\\truffle\\contracts\\Voting.sol",
  "compiler": {
    "name": "solc",
    "version": "0.8.0+commit.c7dfd78e.Emscripten.clang"
  },
  "schemaVersion": "3.4.16",
  "updatedAt": "2024-12-12T05:33:17.289Z",
  "networkType": "ethereum",
  "devdoc": {
    "kind": "dev",
    "methods": {},
    "version": 1
  },
  "userdoc": {
    "kind": "user",
    "methods": {},
    "version": 1
  }
}